:020000040800F2
:10000000F8FF0120C166050813C7040801C70408EA
:1000100015C7040825C7040835C7040800000000F8
:1000200000000000000000000000000045C70408B8
:1000300047C704080000000025D704085DD704085E
:10004000B365050835C8040847C804084DC8040846
:10005000DD510508B3650508C9C70408CFC7040802
:10006000D5C70408DBC70408E1C70408E9F704089A
:10007000F9F7040809F8040819F8040829F804082D
:1000800039F8040849F80408B3650508B36505089C
:10009000E1180508E9180508F1180508E7C704087C
:1000A00061C8040867C8040879C804087FC8040840
:1000B00085C804088BC8040891C8040805C9040849
:1000C0000BC9040811C9040817C90408B365050859
:1000D000B3650508E1C80408E7C80408EDC80408CA
:1000E0000BC804083BC8040855C70408BDC8040869
:1000F000C3C80408DBC80408D5C8040859F80408B4
:10010000B3650508295A050899C80408B3650508A8
:10011000F3C80408F9C80408B1C80408B7C804083B
:1001200069F8040879F8040889F8040899F80408BB
:10013000A9F80408B365050841C80408B3650508B3
:10014000F7180508FF1805080719050849C7040826
:10015000B9F80408C9F80408D9F80408FFC8040865
:10016000B3650508B3650508B3650508B3650508FB
:10017000B3650508B3650508B36505080000000010
:10018000B3650508B365050842884378007843EAFB
:10019000022340EA032070470B0A017043700B0CE6
:1001A000090E8370C1707047036A0239023B8B42AB
:1001B00083BFC389406B01FB03000020704700F13F
:1001C0000B010022D30143EA520310F8012B52FA2B
:1001D00083F38842DAB2F5D11046704737B50D4641
:1001E000044620B9092000232B6003B030BD03680A
:1001F000002BF7D05A79002AF4D081885A8991428D
:10020000F0D118680DF10702062102F0F3FA9DF80B
:10021000073003F00103034313F0FF00E2D123682A
:10022000E2E738B50568044615F8010B20B140F245
:10023000B51156F0A1FA08B1256038BD4FF0FF3076
:10024000FBE7CA7E8B7E032843EA022301BF487D79
:100250000A7D42EA002243EA024318467047C2F38D
:1002600007238A76CB760378032B01BF120C0A751D
:10027000120A4A75704737B5C37904461BB9002581
:10028000284603B030BD00F13C01826B006801914B
:10029000012302F09AFA054680B9E36AE071A06B87
:1002A000626AC31A9342EAD2A3790199022BE6D17A
:1002B00002440123206802F088FAE1E70125DFE724
:1002C00038B5836B8B4205460C4610D0FFF7D3FF41
:1002D00060B922462868012305F13C0102F066FA64
:1002E00000281CBF4FF0FF340120AC6338BD002054
:1002F000FCE7000038B50023C3714FF0FF33836380
:100300000546FFF7DDFF044618BB95F83B2295F83C
:100310003A3243EA02234AF6552293421BD195F81A
:100320003C30EB2B03D01833DBB2012B15D80C4932
:10033000032205F172003FF083F940B1094905221B
:1003400005F18E003FF07CF9002818BF02242046FA
:1003500038BD0424FBE70324F9E70224F7E700BFD4
:10036000BAE30608BEE306082DE9F047437986B0F4
:10037000044601F0FE0593B10DF107020068062165
:1003800002F038FA9DF80730DA0708D41DB113F0EF
:10039000040500D00A25284606B0BDE8F0870023F2
:1003A000637120680DF10702052102F023FA9DF820
:1003B000073013F0010840F014810DB15B07E9D458
:1003C00000212046FFF796FF022803D0012823D8FA
:1003D000277987B302AD04F2022104F242272E46A8
:1003E00011F8040C10B10846FFF7CEFE10318F4211
:1003F00045F8040BF4D1257905B1013D56F8257077
:100400007FB139462046FFF775FF23795BB9012894
:1004100011D90135032DF1D9042808D14FF0010875
:1004200007E00320F1E70428F8D0012803D94FF0B2
:100430000D084546AFE794F8482094F8473043EA62
:100440000223B3F5007FF2D194F8530094F8526080
:1004500056EA002604D104F16000FFF795FE064637
:1004600094F84C5066626B1E012BA571DFD894F88E
:100470004990A4F80E904B46002BD8D009F1FF33D9
:1004800013EA090FD3D194F84E3094F84DA04AEAFC
:10049000032A1AF00F0F0FFA8AF1A4F80CA0C6D1A4
:1004A00094F8503094F84F0050EA032003D104F13F
:1004B0005C00FFF769FE94F84BE094F84A3053EA89
:1004C0000E2EB4D006FB05FC0EEB1A1262448242DB
:1004D000ADD8801A4845B0FBF9F5A8D3464B9D42EC
:1004E000A5D84FF6F5739D427DD94FF0030902352B
:1004F0000EEB07033A44B9F1030F2562A762E362EA
:1005000062635CD194F8672094F8663043EA022372
:100510000B431BB2002B8AD104F16800FFF734FEB5
:10052000AD00206305F2FF15B6EB552FFFF47FAF4A
:100530004FF0FF33C4E90533B9F1030F4FF08003E7
:1005400023722FD194F86D2094F86C3043EA022383
:10055000012B27D1791C2046FFF7B2FE10BB94F87F
:100560003B2294F83A32207243EA02234AF655229B
:10057000934217D104F13C00FFF706FE1F4B98424F
:1005800010D104F50870FFF7FFFD1D4B984209D10B
:1005900004F50970FFF7F8FDA06104F50A70FFF794
:1005A000F3FD6061174A84F80590138801339BB20C
:1005B00013806381144B23610023E36139E7BAF1AF
:1005C000000F3FF434AF6344B9F1020F23634FEAE5
:1005D00045031BBF5B1905F001051D4605EB5305DF
:1005E000A0E70325D7E640F6F5794D458CBF4FF0DF
:1005F00002094FF001097AE7F5FFFF0F52526141FE
:1006000072724161A8280020AA28002001292DE942
:10061000F04706460C46174673D9036A8B4270D9D9
:100620004379022B3FD0032B50D0012B69D101EB32
:100630005108C16A01EB5821FFF742FE054638BB5D
:1006400006F13C0908F1010AC8F3080814F0010496
:100650001FBF19F8083003F00F023B0103F0F0034D
:1006600014BF1343FBB209F80830F16A0123F37198
:1006700001EB5A213046FFF723FE054640B9CAF385
:10068000080A44B1C7F3071709F80A700123F37188
:100690002846BDE8F08719F80A30C7F3032723F08E
:1006A0000F031F43F0E7C16A01EB1421FFF708FEB7
:1006B00005460028ECD1640006F13C0304F4FF7405
:1006C00018191F55C7F307274770DFE7C16A01EB09
:1006D000D411FFF7F5FD05460028D9D1A40006F195
:1006E0003C0304F4FE741C442046FFF74DFD27F044
:1006F000704700F0704047EA00012046FFF74CFDCC
:10070000C4E70225C4E70129F8B505460C4652D9CD
:10071000036A99424FD24379022B29D0032B38D058
:10072000012B48D101EB5106C16A01EB5621FFF7BD
:10073000C7FD10B14FF0FF30F8BD771CE96AC6F372
:1007400008062E4401EB5721284696F83C60FFF737
:10075000B7FD0028EED1C7F308073D44E30795F83D
:100760003C0046EA00204CBF0009C0F30B00E3E761
:10077000C16A01EB1421FFF7A3FD0028DAD1640060
:100780003C3504F4FF742B19285D5B7840EA0320A4
:10079000D2E7C16A01EBD411FFF792FD0028C9D15D
:1007A000A40005F13C0004F4FE742044FFF7ECFCC7
:1007B00020F07040C0E70120BEE7B1F5001FF8B59A
:1007C00006460C4601D30220F8BDCA06FBD182685A
:1007D00005680161CAB96B79022B01D92B6B9BB9F2
:1007E000AB89B3EB541FEED92B6BB361B369726164
:1007F000002BE8D003EB54233C35C4F308042C440D
:10080000B361F4610020DFE71A46EF897F02BC4242
:10081000114604D22846FFF7C7FCB061E6E730680E
:10082000FFF771FF431C024606D00128CBD92B6A83
:100830008342C8D9E41BEAE70120C5E72DE9F0416E
:10084000056880460F4649B96E69C6B12B6AB34246
:1008500098BF0126AB69A3B9002406E02846FFF73C
:1008600052FF0128044603D801242046BDE8F08148
:10087000421C51D02B6A8342F7D83E46EAE7012654
:10088000E8E7BE4215D12B6AD8F80000741CA342D9
:1008900098BF02242146FFF736FF0128E4D0431C0D
:1008A0003AD0D8B16B69012B03D92A6A934238BF79
:1008B0001E4634462B6A0134A34202D8012ECBD9FE
:1008C0000224D8F800002146FFF71DFF40B101289F
:1008D000CAD0013020D0B442ECD1BDE7002CE8D022
:1008E0004FF0FF3221462846FFF790FE90B957B9E6
:1008F0002A6AAB696C61023A934210D92B7A43F0B1
:1009000001032B72B1E7224639462846FFF77EFEE7
:100910000028EDD00128A7D14FF0FF34A5E7013B17
:10092000AB61EBE773B50C46012C05680646114632
:100930002CD92B6AA34229D92AB14FF0FF3228467D
:10094000FFF764FE40B9214630680194FFF7DBFEF3
:100950000199044610B9002002B070BD012815D0DD
:10096000431C15D000222846FFF750FE0028F3D183
:100970002A6AAB69911E8B4205D20133AB612B7A97
:1009800043F001032B72A242DDD8E4E70220E3E743
:100990000120E1E7F7B505460191FFF76CFC04463D
:1009A00000BB01992846FFF7FFFB05F13C0706460F
:1009B000A8634FF40072214638463EF02BFEEB89C7
:1009C0009C4205D3E889001B18BF012003B0F0BD8D
:1009D000286801233219394601F0F7FE0028F1D1C9
:1009E0000134ECE70120F1E72DE9F84307690668D7
:1009F0002037B7F5001F24BF0023836183690446B5
:100A0000894673B1C7F30808B8F1000F39D14169BD
:100A10000133836139B9B389B3EB571F31D8002350
:100A2000A36104200BE0F389013B13EA572328D18B
:100A30003046FFF768FE0128054602D80220BDE8CF
:100A4000F883421C01D10120F9E7336A834212D8AE
:100A5000B9F1000FE3D061692046FFF7EFFE0546CC
:100A6000A8B10128EAD0431CEDD001463046FFF77B
:100A700091FF0028E7D1656129463046FFF794FBD6
:100A8000A0613C3646442761E6610020D7E7072095
:100A9000D5E7F8B50E46002107680446FFF78DFE3E
:100AA000A8B90546A1693846FFF70AFC78B9E36999
:100AB0001B78E52B00D01BB90135B54201D1F8BD3B
:100AC000054601212046FFF78FFF0028EAD00428C1
:100AD00008BF0720F3E700002DE9F84FFF27D0F803
:100AE0000090064688463D4604244FF6FF7AB169D9
:100AF00011B9002C73D063E04846FFF7E1FB0446D0
:100B000000285DD1F0690378002B70D0C27AE52B04
:100B100002F03F02B27158D02E2B56D022F02001A5
:100B2000A1F1080CDCF1000141EB0C0141454CD175
:100B30000F2A4FD15C0646D53269477BF26203F03B
:100B4000BF03427BBA4240D1C17E827E42EA01228B
:100B500011B2002A39D10278D9F81050DFF894E0A8
:100B600022F04002013A0D2462434FF0010C1EF8BE
:100B7000014B00EB040B045D9BF801B044EA0B242D
:100B8000BCF1000F23D0FF2A1FD825F81240A4463D
:100B9000013201310D29EAD10178490607D5BCF1AE
:100BA000000F04D0FF2A10D8002125F812105D1E76
:100BB000EDB200213046FFF717FF0446002896D01B
:100BC0000023B3610CE09D42BBD0FF25F1E7544503
:100BD000DFD0FAE73DB9FFF7F2FAB84203D10024BB
:100BE0002046BDE8F88F4FF0FF33F362F8E70424A6
:100BF000E6E700BF88E40608C16A4B1C2DE9F04116
:100C000005680669044618D1E5274FF00108A16977
:100C10002846FFF755FB60B9E3691F7085F8078028
:100C20002369B3420DD201462046FFF7DDFE0028BE
:100C3000EDD0042808BF022003E0FFF7BEFD002826
:100C4000E2D0BDE8F08100002DE9F04F002185B031
:100C5000D0F800A00446FFF7B0FD0746002840F09A
:100C600092804FF0FF334FF0FF09E362C8460093D4
:100C7000A1695046FFF724FB0746002840F0838017
:100C8000E5692E78002E00F08280EA7AE52E02F0E7
:100C90003F03A37103D0100704D50F2B04D0009B92
:100CA000E36253E00F2B59D194F82B30590643D40B
:100CB000720649D5236995F80D90E36206F0BF06E8
:100CC0006B7B4B4542D1EA7EAB7E53EA02233DD19A
:100CD0002F78DAF810B007F03F077B1E0D275F432F
:100CE0002C4B012213F8011B681815F8018040787D
:100CF00048EA00286AB3FF2F039327D8404655F0EF
:100D00004FFD791C02903BF81700019155F048FD0A
:100D1000029A82421AD10199039B42460F461E490C
:100D20009942DFD12B785B0603D512B13BF817301F
:100D300063B9013E5FFA86F800212046FFF754FEB2
:100D40000746002894D01EE0B045B9D04FF0FF0808
:100D5000F2E74FF6FF718845E1D0F7E7B8F1000FF1
:100D600004D12846FFF72BFA48450CD094F82B7095
:100D700017F0010793D10B2204F1200128463EF021
:100D80005FFC00288BD1384605B0BDE8F08F042702
:100D9000F9E700BF88E4060895E406082DE9F04F5E
:100DA00090F82BB01BF0A00489B0054640F0E3801A
:100DB00007683A6932F81430002B6CD105F120062F
:100DC00096E807000DF1140A1BF0010F8AE80700EE
:100DD00000F0D880402385F82B304FF001089AE8C6
:100DE0000700B4463B69ACE803002CF8022BB8F1CD
:100DF000050F4FEA12428CF8002060D9981E424637
:100E000030F8021F002948D10DF1130C072102F020
:100E10000F0E0EF13000392888BF0EF137000F2A6F
:100E20000CF8010901F1FF314FEA121049D808AB63
:100E30005A187E2002F8140C05F11F008446002287
:100E4000914206D01CF801EFBEF1200F02F101091A
:100E500039D107299CBF08AB03EB010C02F1010259
:100E600096BF1CF814CC4FF0200C0131072A00F873
:100E700002C0EED92846FFF7E7FE814600287DD163
:100E800008F10108B8F1640FA9D14FF007094846ED
:100E900009B0BDE8F08F01348CE74FF0100C01F081
:100EA000010E0EEB4202D30344BF82F4883282F07B
:100EB0002102BCF1010C4FEA5101F0D1A0E74246FA
:100EC000A2E70246A3E74A46BAE729692846A1EB0A
:100ED0004411FFF772FC81460028D8D13046FFF755
:100EE0006EF94FF6FF780190A9693846FFF7E8F9E7
:100EF00081460028CBD1EB69019AD7F810E05A73EC
:100F0000E1B24FF00F024FF00D0CDA72DFF8D8A00B
:100F100018734A1E0CFB02F29876D87684461AF8AB
:100F2000019B404518BF3EF8120003F8090003EB8F
:100F3000090B0CF1010C18BF01324FEA10290028EF
:100F400008BF4046BCF10D0F8BF80190E7D140453A
:100F500002D03EF812200AB941F040011970012375
:100F6000FB7100212846FFF73FFD814600288ED106
:100F7000013CB9D11AE04FF0060988E7042886D170
:100F800085F82BB01BF0020F1BBF0C340D21012480
:100F9000B4FBF1F418BF013421462846FFF779FD70
:100FA000814600287FF473AF013C8ED1A969384691
:100FB000FFF786F9814600287FF469AF01462022B9
:100FC000E8693EF027FB03CEEB6918605960B27800
:100FD000318819819A7295F82B30EA6903F0180369
:100FE00013730123FB7152E788E40608F8B5044641
:100FF000FFF741F90546002842D16379032B37D129
:10100000277A012F34D104F13C0601464FF40072D7
:1010100030463EF0FFFA552384F83A32AA2384F88A
:101020003B3252234122722184F83C3084F83D3017
:10103000612384F83E3084F83F2084F8222284F82B
:10104000233284F8201284F8211204F50970A16972
:10105000FFF7A2F8616904F50A70FFF79DF8A26A2C
:1010600020680132A2633B46314601F0AEFB257297
:1010700000222068114601F0BDFB003818BF012096
:10108000F8BD2DE9F0470026D0F800A08E758369E1
:1010900007460C46002B00F09380C36A01336ED1E3
:1010A000F96900234D1E18462E2615F8012F202A17
:1010B00000F101000CD0052A08BFE522092804D15F
:1010C0000B2B9EBFE71801337E72E71801337A724B
:1010D0000B28EAD1E21800205072A27D002A5ED1CE
:1010E000002B53D06FF0080604F109020825361BC7
:1010F000B31812F8010B00284BD02E2883B261D010
:10110000A3F14100192803D8087B054200D0203301
:101110001373EDE7B9F1000F05D100F520539BB231
:10112000B3F5006F13D340F2B51140EA094055F012
:1011300003FBFF28C8F1FF0519D9012D22D904EBC3
:101140000803020A9A75D8750223984400200236D3
:101150008146DAF81030985B0028DBD14546B9F1BA
:10116000000F18BF002525440023AB7598E758B140
:10117000002DF4D004EB080398750123E5E7B14690
:10118000B046E6E70025EAE70546E8E73F23A37512
:101190000123234400229A750B7B03B96372CB7A37
:1011A000237201F11C00FEF7EFFF2060CA7D8B7DEA
:1011B00043EA0223E3804A7E0B7E43EA0223A380B4
:1011C000BDE8F0871025A3E72DE9F04F0B78D0F8A4
:1011D00000B02F2B87B00646884601D05C2B0AD181
:1011E000424613782F2B904602F10102F9D05C2B76
:1011F000F7D0002301E0DBF81C30B36098F8003032
:101200001F2B00F22A81802386F82B3000213046E4
:10121000FFF7D3FA07B0BDE8F08FFE2D00F246814C
:101220002AF8153001351EE108F101010591DDF8BC
:10123000148098F800202F2AF6D05C2AF4D0202BB6
:1012400034BF04240024012D2CD1BAF800302E2BF9
:101250002ED100232AF8153006F120029D428CBFC2
:101260002E21202101330B2B02F8011BF6D144F073
:10127000200486F82B403046FFF7E6FC96F82B302A
:10128000002800F0D9800428C4D1990603F0040294
:1012900040F1CE80002A00F0E080802386F82B30D9
:1012A0000020B7E7022D03D1BAF802302E2BCCD0A4
:1012B000AAF102028DBB00232AF81530002D00F0A0
:1012C000F5803AF81320202A194603F10103F8D0DB
:1012D00009B92E2A01D144F00304AAF1020232F81E
:1012E00015302E2B01D0013DF9D14FF020334FF0B6
:1012F000000973623362C6F827304F4608233AF874
:1013000011004A1CE8B1202803D02E280DD19542A7
:101310000FD044F003041146F1E732F81530202BCA
:1013200001D02E2BC7D1013DC4E7994504D2954287
:1013300033D10B2B2AD101E00B2B22D144F0030433
:101340000B2396F82020E52A04BF052286F82020EA
:10135000082B04BFBF00FFB207F00C030C2B03D017
:1013600007F00303032B01D144F00204A30780D448
:10137000FD0748BF44F01004780748BF44F0080454
:1013800077E7954202D044F00304DAD3BF00FFB2FE
:101390002A460B234FF00809BDE77F2813D9CDE972
:1013A000022340F2B51144F00203019355F0C4F951
:1013B00010F0800FDDE9022310D03E4900F07F00DD
:1013C000085C019C30B1DFF8F4C01CF8011BE9B1E6
:1013D0008142FAD144F003045F2010E0FF28F0D9E5
:1013E000591E894503D344F00304994693E706EB5D
:1013F0000901040A81F82040019C09F1010906EB6A
:10140000090109F1010981F8200084E7A0F14101F7
:1014100089B2192902D847F00207F0E7A0F161016B
:1014200089B219299EBF203847F0010780B2E6E74C
:10143000002A08BF0520EDE65A073FF5EBAEB37969
:10144000DB0635D533699BF80500C3F308030BF1C0
:101450003C011944FEF7F5FEB0603368CDF8148006
:10146000D3F810A0002505A8FEF7DBFE421C1DD016
:10147000B0F5803F24BF030C2AF8153083B228BF93
:1014800001351F2B7FF6D3AE2F2B3FF4D0AE5C2B54
:101490003FF4CDAE7F2B3FF6C0AE0749184611F89A
:1014A000012B002A3FF4B9AE8242F8D10620B1E602
:1014B0000520AFE608E40608C4E30608CDE3060805
:1014C00000214171FEF750BF2DE9F04305468DB074
:1014D00090461E460C46002900F0BC8003F03F07F2
:1014E0003946FEF741FF002840F0AC80414668468F
:1014F0000095FFF769FE024620B99DF92B30002BBD
:10150000B8BF062216F01C0F6BD0002A3CD0042A6C
:1015100037D16846FFF742FC024690BB47F0080708
:10152000DDF81C90A846494618F8050FFEF789FE1D
:10153000064654F0B5FA014609F10E00FEF72CFEFE
:10154000079B2022DA72079900224046FEF787FEA9
:10155000079B00221A775A779A77DA770123EB7183
:10156000DEB131466846D5F83880FFF7DBF9024630
:1015700038B941462846FEF7A3FE013E6E61024699
:1015800058B10023236028E09DF8063013F0110FB6
:1015900031D1700758D43107C2D4AB6B079E236298
:1015A000666268793907314648BF47F04007FEF761
:1015B00048FE0146A06006F11C00FEF7E5FD6B89C0
:1015C000A380BA064FF000030646E060256027744A
:1015D0006374E361636110D4002210460DB0BDE86E
:1015E000F083002ACDD19DF80630DA062ED4B60756
:1015F000D3D5D807D1D50722C3E70028ECD0EF898F
:1016000060617F02B7420FD30022A161002AB8D1E6
:10161000C6F30803002BDFD02846FEF7C5FDB8B19E
:1016200000EB5620E061D8E72068FFF76CF801284E
:101630000146A6EB070603D9431CE3D10122E4E7E8
:101640000222E2E702469CE708229AE7042298E792
:10165000022296E70922C0E72DE9F04F994685B0AE
:1016600000238846C9F8003003A904461746FEF750
:10167000B5FD0646F8B9667CEEB994F810A01AF0EC
:10168000010300937CD0E2686369D21A974228BFB5
:10169000174687B16269C2F30803002B57D1039B39
:1016A000DB89013B13EA522A15D142B9A06801280F
:1016B0000AD802266674304605B0BDE8F08FA169ED
:1016C0002068FFF720F8F2E7431C03D10123009EB6
:1016D0006374F0E7A061DDF80CB0A1695846FEF72D
:1016E00063FD0028E5D0B7F5007F0AEB00022DD39B
:1016F000BBF80E1001920AEB572088424FEA57259B
:1017000088BFA1EB0A05DBF800002B46414601F03B
:101710004DF80028DAD10399CB795BB1886B019A37
:10172000801AA84206D24FF400723C3108EB4020E8
:101730003DF02AFF6D02D9F800302B44C9F8003083
:1017400063692B447F1BA8446361A2E7E26165697A
:10175000E1690398C5F30805C5F50075BD4228BFCA
:101760003D46FEF7ADFD0028B0D1039963693C31D9
:10177000C3F308032A46194440463DF005FFDAE763
:10178000072698E72DE9F04F9A4685B00023894651
:10179000CAF8003003A904461746FEF71FFD0646A7
:1017A00020BB667C16BB237C9A0740F1A980636945
:1017B000FB4200D3DF43AFB16369C3F30802002AE1
:1017C00040F08180039AB2F80E8008F1FF3818EAE1
:1017D00053281ED173B9A06870B901462046FFF79F
:1017E0002DF848B9237C43F040032374304605B0FC
:1017F000BDE8F08FA169F1E7012802D102266674E5
:10180000F4E7431C01D10126F9E7A368A06103B9FD
:10181000A0600398E369826B9A4203D1FEF72BFD27
:101820000028F0D1039DA1692846FEF7BDFC0028E1
:10183000E4D0B7F5007F08EB000B36D3E98908EB5D
:10184000572088424FEA5723286888BFA1EB080336
:101850005A464946019300F0B8FF05460028D2D108
:10186000DDF80C80019BD8F83810A1EB0B019942F0
:101870000AD24FF4007209EB412108F13C003DF01F
:1018800083FE019B88F807505D02DAF80030626938
:101890002B44CAF800307F1BE368A94415446561F6
:1018A000AB422CBFE360E56085E76169E36899427C
:1018B00007D32846FEF7DFFC0028A4D1039BC3F81A
:1018C00038B0C4F81CB06569E1690398C5F3080530
:1018D000C5F50075BD4228BF3D46FEF7F1FC002866
:1018E00091D1039863693C30C3F308032A46184436
:1018F00049463DF049FE039B4FF00102DA71C4E70F
:10190000072673E7F7B501A90546FEF767FC04460D
:1019100068BB2C7C14F0400429D054F0C1F8296A2B
:1019200007460198FEF7CCFC044600BB6E6AF37ACA
:1019300043F02003F3722868AA6831460530FEF7A9
:101940008EFCE96806F11C00FEF726FC394606F11C
:101950001600FEF721FC0198B4740123F474C371DE
:10196000FFF744FB2B7C23F0400304462B742046F6
:1019700003B0F0BD13B50446FFF7C4FF28B901A9B1
:101980002046FEF72BFC00B9206002B010BD70B5F8
:101990000E468CB000210546FEF7E6FC044660B911
:1019A000314668460095FFF70FFC044690B99DF953
:1019B0002B30002B04DA029BEB6120460CB070BD8B
:1019C0009DF80630DB0609D507996879FEF739FCE2
:1019D000E861F2E7042808BF0524EEE70524ECE7F8
:1019E0002DE9F0470E460021D2B031708146904675
:1019F000FEF7BAFC0546F8B9D9F81C30CDF80090CE
:101A000002934446DDF808A0BAF1000F1AD144450C
:101A100002BF04F1FF342F233355A11B33461A5D57
:101A200003F8012B5A189045F9D8A8EB04030134A8
:101A3000A04538BF01231E4400232846337052B00E
:101A4000BDE8F08720216846FEF7B7FE00284BD19D
:101A500006994846FEF734FC0746002842D107990C
:101A600099F80500FEF7EDFB394602906846FEF74F
:101A7000A4FE002838D100216846FFF72DF807465C
:101A8000B0BB079999F80500FEF7DBFB50450AD07B
:101A900039466846FEF7A8FF0028ECD00546042D1D
:101AA00008BF0225C8E70CA96846FFF7EAFA0DF15E
:101AB000460212F8011B3B4601370029F9D1BC420E
:101AC00014D331191A4632B9621ED21ADB431C44B0
:101AD0002F23B35496E7013A0CA81044807D01F8F7
:101AE000010DF0E70546A7E70546A5E71125A3E7A1
:101AF0000546D4E72DE9F3410D4601A90446FEF75A
:101B00006DFB0646002850D1667C002E4DD1E3685F
:101B1000AB4204D2227C12F0020F08BF1D46002205
:101B2000636962619DB90020E2686369934282BF84
:101B3000227CE36042F04002C3F3080388BF2274B2
:101B4000002B32D0E369834218BFE0612DE0019A97
:101B5000D7897F02FBB1013B6A1EB3FBF7F1B2FBF1
:101B6000F7F28A4217D37A421340A1696361ED1AF2
:101B70000029D8D0BD42636922D863692B446361D0
:101B8000C5F30803002BCED00198FEF70DFB50B132
:101B900000EB5520C8E7A16881B92046FEF74EFE4C
:101BA0000128014605D102266674304602B0BDE820
:101BB000F081481C01D10126F6E7A160A161D7E7B9
:101BC0003B446361237C9A07A5EB070806D52046B2
:101BD000FEF734FE054628B90146CEE72068FEF739
:101BE00092FD05466B1CE6D0012DDCD9019B1B6ADA
:101BF000AB42D8D9A56129464546BBE770B5054635
:101C000016460C4621B30021FEF7AEFB68B92560ED
:101C100031462046FFF7D8FAE0B994F92B30002B73
:101C20000BDBA379DB0603D40520002323600EE041
:101C30006879E169FEF705FBA0606B89A38000214C
:101C40002046FEF7BAFD0428EED00028EDD170BD85
:101C50000920FCE70428E7D0E7E713B501A904460B
:101C6000FEF7BCFA00B9206002B010BD73B50D4696
:101C700001A90446FEF7B2FA20B9014620461DB973
:101C8000FEF79BFD02B070BDFEF726FF10F0FB06CD
:101C9000F8D129462046FFF7F4F931462046FEF7F1
:101CA000A3FE042808BF0020ECE770B50E468CB0F8
:101CB000002104461546FEF757FB0094044670B910
:101CC00031466846FFF780FA044640B99DF92B304B
:101CD000002B07DB1DB129466846FFF7D2F92046E5
:101CE0000CB070BD0624FAE72DE9F84F88460021B4
:101CF0000446FEF739FB054640B9D4F820A0A36995
:101D0000AAF10202934204D8C8F800302846BDE880
:101D1000F88F6379012B17D10227064639462046F2
:101D2000FEF7F1FC431C37D0012837D000B901364B
:101D3000236A0137BB42F1D8C8F80060237AA66154
:101D400043F001032372E1E7E16A0746064604F126
:101D50003C0937B9204601F1010BFEF7B1FAF8B999
:101D600059466379022B09EB07000DD119F80730AA
:101D7000427853EA022308BF01360237BAF1010A5A
:101D8000C7F30807E5D1D7E7FEF7FEF930F0704357
:101D900008BF01360437F1E70125CDE70225CBE77F
:101DA0000546C9E7F0B50E4699B002210546FEF793
:101DB000DBFA044688B9314668460095FFF704FA15
:101DC000044650B99DF82B3098063BD4190639D4F7
:101DD0009DF80670FA0703D50724204619B0F0BD18
:101DE00007996879FEF72DFAFB0606460BD468467C
:101DF000FEF702FF04460028EFD1D6B92846FFF7C8
:101E0000F5F80446E9E7EB698342E5D00E902146F8
:101E10000CA80C95FEF7D1FC04460028DDD1014644
:101E20000CA8FEF759FE04460028D5D00428D4D1CA
:101E3000DDE7024631466846FEF774FD0446002899
:101E4000CBD1DBE70624C8E72DE9F0430E4691B07D
:101E500002210546FEF788FA044600286CD1314677
:101E600004A80495FFF7B0F90446002872D00428AE
:101E700062D19DF83B1011F020016DD168460095AC
:101E8000FEF7DCFC064600285AD001285AD0431C35
:101E90005C425C4153F004FE0746002C54D13146AD
:101EA0002846FEF777FD044600284DD14FF0203339
:101EB000EB632B64C5F843302E2385F83C301023A8
:101EC00085F84730394605F1520005F13C0405F12B
:101ED0000508FEF761F9324621464046FEF7BFF994
:101EE00005F15C031A4651F8040B42F8040B9942C1
:101EF000F9D12E23069A85F85D3040464FF001094E
:101F0000FEF7ADF985F8079004A8FEF747FF0446F1
:101F1000D0B90B9839461630FEF73EF90B99324688
:101F20004046FEF79CF90B9B1022DA72284685F892
:101F30000790FFF75BF80446204611B0BDE8F08338
:101F40000724A7E70224A5E7002231466846FEF7EA
:101F5000E9FCF1E70824EFE70624EDE7F0B50D46CC
:101F6000A1B0022104461746FEF7FEF9002877D1FA
:101F7000294608A80894FFF727F9002870D19DF892
:101F80004B3013F0A00F6DD10F9B6D4603F120066F
:101F9000186859682A4603C20833B3421546F7D178
:101FA00008AE0FCE14AD0FC50FCE0FC596E80F00CB
:101FB00085E80F00394614A8FFF706F948B9169AC4
:101FC0000A9B9A4203D1189A0C9B9A4203D008208C
:101FD00046E0042844D114A8FEF7E0FE00283FD1D3
:101FE0001B990DF10D0301F10D020DF11D0053F8C8
:101FF000045B42F8045B8342F9D1188810809B7817
:1020000093709DF80B30DA0658BF43F0200301258A
:10201000CB72E571CB7ADB061BD50A9A169B9A42E6
:1020200017D06079FEF70DF901462046FEF7BCF89F
:102030000146C8B12046FEF743F988B994F85D30EF
:102040002E2B06D1169A04F15C01601DFEF707F9EC
:10205000E57108A8FEF7D0FD10B92046FEF7C6FFCF
:1020600021B0F0BD0620FBE70220F9E7F0B595B0FE
:10207000064601910221FEF777F90446002833D184
:1020800002AF4FF02033029305467B60C7F807305C
:10209000019B1B781F2B20D89DF80830E52B22D000
:1020A0001DB16B1EFA5C202A35D0002108A80896C5
:1020B0000A91FEF782FB0446B0B9012108A8FEF799
:1020C0000BFD98BB0F9A45B33B4603CB10605160A4
:1020D00019889B789372118121E001A8FEF7A1F87D
:1020E000B0F5803F03D30624204615B0F0BD54F070
:1020F00057FB40F2B51154F01FFB0028F3D01D4AE6
:1021000012F8013B13B19842FAD1ECE7FF2822D82C
:102110000A2D28D9E7E71D46C2E7E52313700123FE
:10212000F3713046FEF762FF0446DDE70428FBD179
:10213000002DD9D0012108A8FEF7ABFC04460028E9
:10214000D2D1202201460F983DF064FA0F9B08225D
:10215000DA720F9AB8E7092DC5D814AB2B44020ADE
:1021600003F8482C013514AB2B44013503F8480C17
:102170008EE700BF95E406082DE9F04FD0F8008007
:102180008BB01C46002343710291037901931546DD
:1021900005210DF11F02404600F02CFB9DF81F3079
:1021A000DA0700F189825E0700F1888208AA03211C
:1021B000404600F01FFB30B9089A531EB3F5004F9C
:1021C00001D21A4201D0012308935DB15C4BA5F501
:1021D00000729A4203D913200BB0BDE8F08F6B1E3A
:1021E0002B42F8D1002C00F06B82149BB3F5007FDA
:1021F000C0F06682019B002B66D00123002221469D
:10220000404600F0D3FA08B10120E5E794F8FF2139
:1022100094F8FE3143EA02234AF65522934201D054
:102220000E20D9E7019B04EB031303F5D77193F854
:10223000B231002BF4D001F10800FDF7A5FF0746ED
:1022400001F10C00FDF7A0FF0990DDF824A0BAF120
:10225000150FE5D9B5F5813FBDD2029B13F00203FE
:1022600005934FEA5522029B41D003F00703022B4E
:1022700000F03482029BD80740F13082002A3FD11F
:1022800030484FEA1A35012630F8023B0BB1AB4219
:1022900034D940F6F573BAFBF6F59D429BBF05EBCA
:1022A0004505013502356D088CBF6D0003354FF0D3
:1022B000200305F2FF1504938CBF4FF002094FF085
:1022C00001096D0A01232CE209AA0121404600F010
:1022D00091FA002898D1029B13F0080F099B14BFB4
:1022E00000273F27BB429BD3DB1B0993ADE7D907F0
:1022F000C4D470E75200F8E11346FDE17600C3E76D
:102300001646C6E7B9F1020F1ED103994FF6F570D4
:10231000814208D9002A40F0DD817600402E00F28B
:1023200038823246AAE7039940F6F570814213D805
:10233000002A7FF475AF7200802A9FD970E700BF32
:1023400000FEFF00A8E40608039940F6F5729142EA
:102350003FF666AF4FF001094FF4007200212046AE
:1023600005933DF057F9D74A059B116821605168E4
:102370006160A3731189927A2181C3F30723B9F1B4
:10238000030F4FF00201A272E3734FF000024FF00F
:102390000103237414BF0B461346BAF5803FE27263
:1023A000217366736274A37480F01D8184F813A096
:1023B000CAF3072A84F814A0F82363753F23237611
:1023C0004FF0000AFF2384F819A0A37684F81BA01D
:1023D000394604F11C00FDF7DFFEB9F1030F40F0B0
:1023E000088153F05DFB014604F14300FDF7D4FE84
:1023F000294604F12400FDF7CFFE022384F82C3097
:10240000012384F83030062384F83230802384F8A6
:102410004030292384F84230AB4B84F82DA084F857
:102420002EA084F82FA084F831A084F833A004F102
:10243000470203F1100153F8040B42F8040B8B42DE
:10244000F9D119889B7893704FF05503118084F867
:10245000FE316FF0550384F8FF313A4601232146DF
:10246000404600F0B2F9824600287FF4CDAEB9F1C3
:10247000030F3ED10123BA1D2146404600F0A5F9C5
:102480004FF40072514620463DF0C4F852232370A9
:1024900063706123A37084F8E731039B41227221AA
:1024A000E27084F8E41184F8E51184F8E621591EFD
:1024B00004F5F470FDF770FE022384F8EC314FF060
:1024C000550384F8FE316FF0550384F8FF31FA1D8F
:1024D0000123214684F8EDA184F8EEA184F8EFA150
:1024E000404600F072F90123FA182146404600F0F8
:1024F0006CF9149B23F4FF7222F0010200212046A4
:102500003DF088F8B9F1030F40F09080F823237074
:10251000FF236370A370E37023716371A371E37190
:1025200023726372A3720F23E372149B5B0A0393FB
:10253000039BAB4228BF2B4621465A4640469A464B
:1025400000F043F9014600287FF45EAE4FF40072BC
:1025500020463DF05FF8B5EB0A05D344E8D1049B73
:10256000B9F1030F18BF1E46039BB34228BF334681
:102570005A46214640461D4600F027F900287FF4C0
:1025800043AE761BAB44EFD1B9F1030F58D0099B92
:10259000B3F5803F56D2B9F1020F0CBF04250125D7
:1025A000019B002B50D0002201232146404600F021
:1025B000FDF8024600287FF427AE019B04EB0313CD
:1025C00083F8B25101232146404600F0FEF800286E
:1025D0007FF41AAE00221146404600F00BF9003895
:1025E00018BF0120F8E5514604F12000FDF7D4FDA5
:1025F000E2E653F055FA014604F12700FDF7CCFD61
:10260000C5F30723E375802384F82430292384F855
:1026100026302E4BA57504F12B0203F1100153F85F
:10262000040B42F8040B8B42F9D10AE7B9F1010F10
:102630002749204618BF6FF00701FDF7ADFD74E78D
:102640000C25ADE70625ABE7029B1B07C2D4019919
:102650004FF4007220463CF0DDFF5523099A84F8C0
:10266000FE31AA2384F8FF31019B84F8BE3184F83F
:10267000C1313A4443F6C163B2FBF3F2FE2384F85E
:10268000C331930843F03F03012684F8C43184F832
:10269000C521394604F5E37084F8BF6184F8C06150
:1026A00084F8C251FDF778FD099904F5E570FDF74E
:1026B00073FD019A334686E703208DE50A208BE5FA
:1026C000112089E5D4E30608E0E30608F4E30608F0
:1026D000F8FFFF00059B002B3FF4A2AD002A7FF41A
:1026E0000BAE30484FEA5A45012230F8023B1BB18D
:1026F000AB427FF6FFAD0023BAFBF2F02A4E850015
:10270000A0F57F40F63805F20725B0424FEA55257F
:102710003FF686AD16461A46002304934FF0030990
:1027200020230498DDF820E007EB030B05EB000CF9
:10273000DC440EF1FF306044CEF1000E00EA0E00E2
:10274000A0EB0C00B9F1030F06BF1B1883442D1832
:10275000C7EB06108444E245FFF462AD0498AAEB8F
:102760000000C01AB9F1030FA0EB0500B0FBF6F0B2
:1027700003907FF4C7AD03994FF6F57081423FF6A1
:10278000EBAD002A7FF44CAD012E7FF649AD720807
:10279000A4E7059B002BA4D1802E3FF641AD324625
:1027A00077E500BFB6E40608FFFFFE0F10B50C4644
:1027B00011461A4638B1234604303CF0BBF90038C4
:1027C00018BF012010BD0420FCE710B50C461146CF
:1027D0001A4650B1234604303CF0D0F910F11E0FD8
:1027E00005D0003818BF012010BD0420FCE70220EE
:1027F000FAE7000070B50D4614460646002833D0AF
:10280000244A01F00703D15C00292FD000220430B4
:102810003CF0DCF9062D27D8DFE805F008050A169C
:102820002619190006202AF073FD2060002070BDD3
:10283000062805D14FF4007323802388B360F5E7A1
:102840002AF066FD2080F8E701232360EEE70628E2
:1028500001D0430806D1336A002B0CBF04230023A8
:102860002370E3E70123FBE70420E0E7062DFBD814
:1028700001A353F825F000BF2D28000825280008E3
:10288000352800084928000869280008572800084A
:1028900057280008D02A0608086833F034B9000029
:1028A00037B51D46043001AB1446FEF76BFF38B157
:1028B000064B1B5C2B604FF0FF34204603B030BD4D
:1028C000019BA342F9D01C23F4E700BF102B06089C
:1028D00013B51C46043001ABFEF7BEFE30B1044B0D
:1028E0001B5C23604FF0FF3002B010BD0198FBE786
:1028F000102B06082DE9F843814650680E46904695
:1029000030F054FC2E4A2F490138002410F8013FC2
:10291000D3B92C201DF0CEFB0746054647F8046BC3
:10292000D8F8000030F042FCE3B20246394609F123
:102930004400FEF7C9FD0646C0B328461DF0D4FB8F
:10294000214B985D29F0D6FE782BDFD8712B08D863
:10295000612B24D0622B25D02B2BD7D144F003043C
:10296000D4E7723B062BD1D801A555F823F000BF60
:102970008D2900080D290008A92900080D29000843
:102980000D290008932900089929000844F0010442
:10299000BCE744F00A04B9E744F00604B6E744F0A3
:1029A0001204B3E70E46B1E71646AFE7E30603D5D8
:1029B00029693846FFF79EF82846BDE8F88300BF2E
:1029C000602B0608242B0608102B060830B587B0AC
:1029D000044603AD084611461A46064B009301957E
:1029E00003232AF093F92A4621460020FFF782FFAD
:1029F00007B030BDF82A06081FB50623CDE901123D
:102A00000349039301AAFFF775FF05B05DF804FBC6
:102A1000602B060813B50446084601912AF0ECFB2A
:102A2000019B04490246204602B0BDE8104000F078
:102A3000BBBF00BFD82A0608022970B50446154658
:102A40001E4613D15368012B0AD0022B0CD01BB9A0
:102A50001168201DFFF74EF8A3692B60002070BDA0
:102A600081692B681944F4E70169FAE701290AD161
:102A70000430FEF747FF0028F0D0084B1B5C3360A2
:102A80004FF0FF30EBE7042906D14368002BE5D077
:102A90000430FEF76FFFEEE71623F0E7102B060871
:102AA0002DE9F74F06299DF8305010D8012905D996
:102AB0003F2300F8013B0023037001E00029FAD115
:102AC000012994BF0020012003B0BDE8F08F10EE73
:102AD000104A002C044622DAB4EE400AF1EE10FA55
:102AE0001DD62D2504F8015BB1EE400A9FEDC27A98
:102AF000F0EEC07AF4EE477AF1EE10FA02F0200E12
:102B000012DD8EF0490323708EF046058EF04E03E1
:102B10006370E11CA57000230B70081AD4E7002D28
:102B2000E4D004F8015BE1E7B4EE400AF1EE10FAFC
:102B300008D74EF04E038EF0410523706570E11CFE
:102B4000A370E8E7002B42F02002B8BF0623672AF3
:102B500002D1002B08BF012310EE106A251A491B71
:102B6000002E01F1FF3547D1662A37D15E1CAE42F7
:102B7000A8BFCB1E00275D1C6621BC463E466529CA
:102B800023EAE37840F0098108F10105002301936D
:102B90004FF02E0BB2EE047A019B9D4200F30681AA
:102BA000662A40F03381AE4240F3848197B10A2116
:102BB00096FBF1F301FB136693FBF1F201FB12327A
:102BC0004EF0450E3032303684F800E06770A27067
:102BD000E670043400232370201A75E75E1DAE42B0
:102BE000A8BFCB1F652A11464FF0000540F0CF80EB
:102BF0002B27AC462E46C2E7B6F17E5F6FD2DFEDE3
:102C00007F7ADFF80082DFF800A2B4EEE70AF1EE87
:102C100010FA4FF00007ACBF4FF031094FF0300908
:102C20004FF0200C3E46B8EC017AB4EEC07AF1EEDB
:102C300010FAC4BF0AEB070B9BED007A07F10407FB
:102C4000C4BF664420EE070A182F4FEA6C0CEAD185
:102C500010EE107AB7F17E5F27D2B4EEE70AF1EEFC
:102C600010FA1DDB002E14BF2D272B27B7EE000A0C
:102C7000662A03D0672A28D1042E26DC672A04BFDF
:102C800006F1FF37DB195F1CAF42A8BFCB1E84F8EB
:102C9000009063B901341D461F464FF0FF3C58E0D9
:102CA000F2EE047A20EE270A01362D27E0E72E21E6
:102CB00061701D4602343021013E6AD00DB92F46A5
:102CC000EBE704F8011B013DF6E78D1F9D4202DC96
:102CD000672A60D0CB1F11460025AC464FE700277E
:102CE000DFF82481DFF81C914FF0200C3E46F8EC11
:102CF000017AF4EEC07AF1EE10FA9CBF09EB070AF4
:102D0000DAED007A07F104079CBF664420EE270A3B
:102D1000182F4FEA6C0CEAD1FDEEC07A17EE907ACC
:102D2000092FC2BFDFED367A013620EE270A662A68
:102D300011D1AE4217DA99190131A94205DBAD1B59
:102D4000012DA5F1020308BF0023F5180135B44693
:102D50000027662113E7652A05D0672A0CD01146A3
:102D600000252B27B9E78D1F9D4200DCCB1F0025D6
:102D70002B27AC46652102E71F1DAF4200DB8B1FEE
:102D80009E4201DB6721EBE7711C5B1ADDE72F46F2
:102D90002FE7374681E72B469DE767297FF4F6AE9C
:102DA000002BDABF0125A8464546EFE6FDEEC07AC6
:102DB00004F1010A17EE903A002BA8BF03F1300985
:102DC000019BACBF5FFA89F94FF030099C4584F84C
:102DD000009006D1B8F1000F03D004F1020A84F884
:102DE00001B0F8EEE77A019B30EE670A013320EE7E
:102DF000070A01935446CFE6FFFF7F7FF8FF7F3F2E
:102E0000CDCCCC3D70D5050888D50508F1EE047A07
:102E1000B4EEE70AF1EE10FA24DB631E4FF030093E
:102E20001D782E2D03F1FF3C2ED0A5F1300ABAF10A
:102E3000090F2BD901331D78302D13D193F801C020
:102E4000BCF12E0F2FD166292DD02D2F83F800C075
:102E50005D7026D1013E08BF2B2721468B4224D32B
:102E600031211970672A7FF4A1AEB8F1000F3FF449
:102E70009DAE23461C46013B14F8012C302AF9D0A4
:102E80002E2A08BF1C4691E66346C9E7392D02D0B9
:102E900001351D70CFE798428CF80190F4D10346BC
:102EA000C9E70136D9E70134D7E711F8015C01F829
:102EB0000159D3E7F1EE047AB4EEE70AF1EE10FA25
:102EC000ABDA73E608B5044631B1054B8A6B036093
:102ED000096800232CF064FA20461DF0B9F800BF01
:102EE000D8E505082DE9FF471E460192451812B1A5
:102EF000023A222A34D80446AC42274639D214F882
:102F0000010B1EF059F980460028F5D13B782B2B98
:102F100029D12746E91B384601AA27F028FF074494
:102F2000B9460024A9454B4626D3B8F1000F00D07E
:102F30006442640044F00104BB4209D01F46AF4222
:102F40003B4641D2187801371EF036F90028F6D1F9
:102F50002049019A20482CF0E7F93146FFF7B2FFEB
:102F60001E4829F0D7F92D2B04BF27464FF0010842
:102F7000D0E74FF00008CDE719F8012BA2F1300A95
:102F8000BAF1090F09D95F2ACCD042F02002A2F190
:102F900061011929C9D8A2F1570A01995145C4D92B
:102FA000204636F0A9FC28B9019B03FB04A494EA4F
:102FB0004403B7D5019B03974246E91B03A82DF0B4
:102FC000B1FB039B0446B7E7C2D1204604B0BDE87D
:102FD000F08700BFB5D50508C8E60508A0D50508E7
:102FE0002DE9F04F2DED028B83B00446DDF83880DB
:102FF000019391464618B442254680F031812878E5
:103000001EF0DAF8013407460028F4D12B782B2B78
:1030100009D125468246B4420CD30023DFED938AC2
:103020001F4618468BE02D2B03D125464FF0010A91
:10303000F1E782462B7843F02003692B32D1AB1C99
:103040009E4240F205816B7843F020036E2B40F0E6
:10305000FF80AB7843F02003662B40F0F980EB1D36
:103060009E4205F103041AD9EB7843F02003692B43
:1030700015D12B7943F020036E2B10D16B7943F0DF
:103080002003692B0BD1AB7943F02003742B06D1BD
:10309000EB7943F02003792B01D105F108049FED72
:1030A000748A14E06E2B2AD1AB1C9E4240F2D08071
:1030B0006B7843F02003612B40F0CA80AB7843F07B
:1030C00020036E2B40F0C4809FED6A8AEC1CBAF19D
:1030D000000F01D0B1EE488AA54209D0B442234680
:1030E00080F09880187801341EF066F80028F5D139
:1030F000614962482CF08EF84146FFF7E3FE002359
:10310000DFED5A8A9FED5E7A0093AC461846194669
:10311000F2EE046A644614F801EBAEF1300BBBF139
:10312000090F38D8022922D1564A904202DC0A22DD
:1031300002FB00B0A6425ED8009A02B140420344AE
:1031400013F1250FBEBFDFED507A253368EEA78A55
:1031500013F1090F53D35B4200EE903AB2EE040A2A
:10316000F8EEE00A3DF076FA88EE808AAFE7F4EEFA
:10317000C78AF1EE10FA0BD507EE90BAF8EEE77AAF
:103180000129E8EEA67AF0EE678A31D1013BD1E75A
:1031900029B90133CEE721B9BEF12E0F03D10121A8
:1031A000C8E7022917D04EF0200BBBF1650F12D1F2
:1031B000A64258D99CF801102B2905D10CF1020424
:1031C000B44295D00221B5E72D2913D101220CF18B
:1031D00002040092F4E7B9F1000F04D04EF0200B86
:1031E000BBF16A0F09D0BEF15F0FA3D06446A3E71D
:1031F00000219FE70221A4468CE74F469CE707EE9B
:10320000903AB2EE040AF8EEE70A3DF023FA28EE0F
:10321000808A5CE77FF46CAF57B19FED140AF0EE43
:10322000480A03B0BDEC028BBDE8F04F2BF0AAB802
:10323000019B23B1DFED0D0AB0EE480AF1E7B0EED5
:10324000480A03B0BDEC028BBDE8F04F2CF0C6B9C4
:10325000BAF1000F3FF44CAF9FED048A2C4639E7DA
:103260004FF0000AD9E63FF443AF65E700000000E5
:103270000000807F0000C07FC1D50508C8E60508B2
:10328000EC78AD6064666606EA1C080208461146E2
:103290004AF04EB937B50546084601913CF0F2F9BF
:1032A000044620B102466B68019928689847204679
:1032B00003B030BD2DE9F74F89469DF83010174611
:1032C0000D9A11F0DF0F0646A2EB07023DD0302920
:1032D00025490CA813BF804688464FF0100A4FF0CE
:1032E000010A13F0800535D002EBD2746510A2EB11
:1032F0006404002D35DDAB46DA455246736830680C
:10330000A8BF5A46414601929847019AABEB020B7F
:10331000BBF1000FF0DC2FB1736830683A464946C4
:1033200098473D44002C0CDD2544A2455746A8BFD4
:103330002746736830683A464146E41B9847002C9C
:10334000F3DC284603B0BDE8F08FDFF820804FF0B3
:10335000100AC6E713F0010401D11546C9E7144667
:10336000D9E70025D7E700BF45C6050834C60508DC
:103370002DE9F04389B006460020119D9DF8488054
:10338000139F8DF80F000AB381421ADA2D228DF8AF
:103390000F204942109A08ACA2F10A000DF1100961
:1033A000B1FBF3FC03FB1C12092A8CBF121830324C
:1033B00004F8012D4C458E4661460ED07345EFD979
:1033C0000BE0A80727D52B228DF80F200029E1D18B
:1033D00030238DF81F300DF11F0415F040099DF8C2
:1033E0000F301CD023B30122CDE900822B460DF112
:1033F0000F013046FFF75EFF013F814608AACDE985
:1034000000872B46121B21463046FFF753FF4844E6
:1034100009B0BDE8F0836A07D8D52022D4E7002B95
:10342000ECD004AA9442E9D904F8013C013CE5E758
:103430009946E3E72DE9F04F93B081461D46C80752
:103440009DF874301C9E0693DDE91E7A0C4690466A
:103450000BD4A10703D12268794B9A4205D02046AC
:1034600029F056FF400040F0010416F0810306D118
:10347000069A302A03D15745B8BF57469A46204688
:103480002DF062F800280DF1280B18DBB20712D5D9
:103490002B238DF828300DF12902F006EDB21DD551
:1034A000B8F1020F0DD11346302103F8021B691C3D
:1034B00051701A4612E0730701D52023E9E75A46F6
:1034C000EBE7B8F1080F60D1B1054FF0300313708E
:1034D00045BF05F10E03537001320232A2EB0B031C
:1034E000002116F0200F117005930EAA0CBF0B4699
:1034F0002C23BAF1010F0B92C8BF46F040061022F0
:10350000CDE90C2116F04002CDE902538DF82710C9
:10351000079244D0CDE9008123460DAA0CA90BA83F
:103520002CF0F2FE03782D2B804606D18DF8273043
:103530000D9B013B00F101080D93BAF1010F3CDD39
:103540000D9D079B5545B8BF55462BB19DF82730BB
:1035500003B10135059B1D44AF422BDD16F001037D
:10356000A7EB050527D12C461D4626F001064CB1D8
:10357000202300930023019432491A464846FFF75E
:1035800099FE04463023069319E0B8F1100FA5D137
:103590001346302103F8021B05F1170188E70AAB37
:1035A000CDE900830DAA23460CA90BA82CF0ACFE94
:1035B0008046C2E700250024D7E700252C46079B5C
:1035C000DBB19DF8273053B100230122CDE9003251
:1035D0000DF127014846FFF76DFE013F0444059BAE
:1035E0005BB100230122CDE900325946059A4846D5
:1035F000FFF760FE059B0444FF1A069B0093BAF197
:10360000010FC8BF57460D9A0197334641464846B9
:10361000FFF750FE04444DB12023009300230949D5
:1036200001951A464846FFF745FE04440B980EAB39
:10363000984201D01CF058FD204613B0BDE8F08F31
:1036400018EC05089B8406082DE9F04316468BB05C
:10365000B207DDF84890074698463DD416F0040FAF
:103660000CBF0023202300930A46139B202102A8AD
:10367000FFF716FAF30504460DD5431C1F2B0AD895
:103680000AAA1444252204F8202C0AAA1A4400216C
:1036900002F8201C1C4616F040051FD09DF808308B
:1036A0002F2B4FF000031BD8012202A9CDE90032D5
:1036B0003846FFF7FFFD09F1FF390546013C0DF1E2
:1036C0000901CDE90089334622463846FFF7F2FD6D
:1036D00028440BB0BDE8F0832B23C4E702A9F0E730
:1036E00002A91D46EDE700002DE9F04F824689B0A2
:1036F000144600260B461D4613F8012B82B9A94239
:1037000011D30B78002B00F04681013120234FF0BC
:1037100000080A4612F8015B7DB94FF00A0C2AE056
:10372000252AE8D1EBE76F1ADAF80430DAF800005E
:103730003A4698473E442946E3E72D2D03D148F009
:1037400001081146E5E72B2D02D148F00208F8E701
:10375000202D02D148F00408F3E7212D02D148F0D2
:103760000808EEE7302D22D148F040082B46E8E764
:103770000CFB0525303D0F4611F8012BA2F130005E
:103780000928F5D92E2A42D17A782A2A11D00A4658
:103790004FF00A0C0021174612F801BBABF13000C4
:1037A000092809D80CFB01BBABF13001F3E7002578
:1037B000B3E754F8041B023721EAE17B3A786C2A1C
:1037C00008BF013797F80090B9F1000F00F0E380CF
:1037D000B9F1780F6BD8B9F1570F1BD8B9F1470F72
:1037E00062D8B9F1440F62D9073424F00704F4E831
:1037F0000201049353F0D8F9CDE9005B00EE100A02
:10380000049B424649465046FFF71EFF63E04FF0D7
:10381000FF3BD3E7A9F15802202A48D801A151F86B
:1038200022F000BF65390008AF380008AF38000843
:10383000AF380008AF380008AF380008AF380008CC
:10384000AF380008AF380008AF380008C1380008AA
:10385000E338000849390008E9370008E93700086B
:10386000E9370008AF380008AF380008AF38000863
:10387000AF380008AF380008AF380008AF3800088C
:10388000AF38000887390008F7380008AF3800085B
:1038900021390008AF38000865390008AF38000842
:1038A000AF38000865390008B9F1500F6BD0DAF86D
:1038B0000430DAF8000001223946984701360BE05F
:1038C00054F8042BCDE9003543463AB1344904227B
:1038D0005046FFF7EFFC0644791C0BE731490522FF
:1038E000F6E754F8042B8DF81C20CDE900350122B1
:1038F000434607A9ECE707A954F8040B04931DF00D
:103900002EFABBF1FF3F049B014604D0079A934572
:1039100038BFCDF81CB0CDE90035079A4346D7E74C
:1039200054F8041B0593084604913BF0ABFEBBF131
:10393000FF3FDDE90413024602D0584528BF5A462E
:10394000CDE900354346C3E7CDE902356123009355
:10395000CDF804800A23012254F8041B5046FFF7D7
:1039600007FDB8E729F00F0209F101010F3A01F054
:103970000601D2B2CDE90235CDF804800092C1F142
:1039800010030022E8E7CDE9023561230093CDF86A
:1039900004801023F5E7304609B0BDE8F08F00BF82
:1039A00020C6050825C605080EB403B503AA52F8BB
:1039B000041B0192FFF798FE02B05DF804EB03B020
:0439C000704700004C
:020000040802F0
:10000000024B5A690260586100207047AC2A0020F8
:10001000024B5A6912685A61704700BFAC2A00202F
:10002000C460056146618761C0F81C80C0F82090FB
:10003000C0F824A0C0F828B0C0F82CD080ED0C8BFC
:1000400080ED0E9B80ED10ABC0F808E0FFF7D8BF45
:10005000104908B54B690BB92CF098F81A6858602C
:100060004A611846C468056946698769D0F81C80EA
:10007000D0F82090D0F824A0D0F828B0D0F82CD018
:1000800090ED0C8B90ED0E9B90ED10ABD0F808E04E
:1000900001207047AC2A002010B50021044600F072
:1000A000ADFA18B914B120460CF020F910BD0021AA
:1000B00000F0A4BA10B50121044600F09FFA18B967
:1000C00014B120460CF012F910BDFFF7E5BF10B5D2
:1000D00001220C4600F0A4FB18B914B120460CF024
:1000E00005F910BD00F09CBB00F05CBB2DE9F043AE
:1000F0002A4C00250326D4F8F87100210131431859
:100100009A0803F00303BA5C5B0042FA03F303F0BE
:100110000303022BF2D0D4F8043209018A0803EB5E
:10012000001089B300EB820103681A0729D1D4F8C3
:1001300004229A4225D89A1AC2F301174FEA470EB1
:10014000D4F808729F424FEA921C4FEA121218D953
:10015000D4F8F88118F80C9049FA0EF707F0030765
:10016000012F0ED106FA0EF305F5847E3F2D43EAEA
:10017000090308F80C309ABF24F81E200135C4F892
:100180000C7204308842CFD12DB1013D05F5847346
:1001900034F81300AFE7BDE8F08300BFAC2A0020BD
:1001A000F0B4194ED6E98043C01AC109C0F3021554
:1001B000635C0122AA4023EA02036354D6F89C221E
:1001C00083090409B2EB901FD6F8F80188BFC6F87E
:1001D0009C32C15CA50804F0030303275B0007FA07
:1001E00003F321EA030343550134D6F8F801A508C7
:1001F00004F00303415D5A0041FA02F202F00302E7
:10020000022AEBD0F0BC7047AC2A002021F00F038B
:1002100070B5144A144D1C1AE400A2FB0424640AAD
:100220000219A3EB8416C5F8002200212246C5E975
:100230008163C5E97E041FF0EDF9A2000732D20800
:100240000021D5F800021FF0E5F9002301214FF04D
:10025000FF32C5E9A623A5F890122B81C5F8943288
:1002600070BD00BFF32C23FAAC2A0020024A138988
:1002700001331381704700BFAC2A0020024A138962
:10028000013B1381704700BFAC2A0020024B188944
:10029000003818BF01207047AC2A0020F8B51C4C6C
:1002A0002389002201332381C4F89422C4F80C224C
:1002B00004F1080504F5EC76032755F8042F13071D
:1002C0001AD1D4F80402824216D3D4F80812101AB4
:1002D000C0F301138A424FEA901C4FEA43034FEAEE
:1002E000101009D2D4F8F81111F80CE04EFA03F20C
:1002F00002F00302012A02D0AE42DED1F8BD07FAB5
:1003000003F343EA0E0301F80C30FFF7EFFEF3E7C7
:10031000AC2A002081B3F8B5041F184E04EB810508
:10032000032754F8043F1A071AD1D6F8040298425A
:1003300016D8D6F80812181AC0F3011299424FEADB
:10034000901C4FEA42024FEA101009D9D6F8F81172
:1003500011F80CE04EFA02F303F00303012B02D074
:10036000A542DED1F8BD07FA02F242EA0E0201F818
:100370000C20FFF7BBFEF3E7704700BFAC2A00205C
:100380002DE9F04F594CD4F80C3285B0002B00F019
:10039000A980D4F8FC3100269A00C4F80C62002A27
:1003A00043D00025D4F8F811AB08CB5C05F003016D
:1003B00049000B4103F00303032B3FD00135954265
:1003C000F0D3D4F80C32002BE7D172B34FF0000E0B
:1003D00076464FF0030A4FF001094FF0020804E09F
:1003E000012B49D0013696421FD2D4F8F8C1B70884
:1003F00006F003051CF807106D0041FA05F303F041
:100400000303022B0CEB960028D0032BE8D108FA4B
:1004100005F521EA05010CF80710D4F8FC31013686
:100420009A0096424FF0000EDFD323890022013B51
:100430002381C4F89C2205B0BDE8F08F2846FFF761
:1004400055FED4F8FC310135B5EB830F4FEA83023A
:10045000A8D3D4F80C32002B9FD1B6E7BEF1000F21
:10046000C0D00AFA05F521EA05010170D4F8FC3183
:100470004FF0010E9A00B5E7D4F80022F30806F019
:10048000070B12F803C001934CFA0BFE1EF0010F8C
:1004900002EBD602E5D0D4F804023101415800EB5A
:1004A0000610A1B102AAB1210BF036F9DDE9013243
:1004B00042B10CF065F9DDE902010CF031F90CF004
:1004C00075F9019BD4F8002212F803C01A4409FA06
:1004D0000BFB2CEA0B0C82F800C0D4F8F831D95D84
:1004E000D819BEE7D4F8FC319A006EE7AC2A002098
:1004F000044B1A89002101321A81C3F80C12FFF74C
:100500003FBF00BFAC2A00203B4BD3E981122DE94D
:10051000F047D3E97E760023C0E90233C0E9043313
:10052000521AC0E900231D4683619E469C461C4624
:100530001A46994619469846B60017F809304900F8
:100540000B4103F00303012B49D0022B43D0002BB6
:1005500039D0013296420ED04FEA920902F00301DF
:1005600017F809304FEA410A43FA0AF313F003037C
:1005700001D0012BE1D1012C11D0022C02D1416913
:10058000013141618169A14238BF846196420FD037
:10059000012B28D04FEA920902F00301CDE701694F
:1005A000013101618169A14238BF84619642EFD176
:1005B000C44501D9C0F80CC02D014FEA0E13C0E9A3
:1005C0000153BDE8F0870EF1010EC0F808E00CF110
:1005D000010C1C46BDE7013545600134B9E7013522
:1005E00045601C46B5E7E04502D2C0F80CC0E046C5
:1005F0004FF0000CCEE700BFAC2A00200F302DE9F1
:10060000F843060950D0664C2389002B4CD1B4F82E
:100610009032002B0D460CBF4FF0010E4FF0000E34
:1006200047D1D4F89C02D4F8FC71874239D9D4F868
:10063000F8C1411E614400221AE00132964253D9AA
:1006400013F00C0F1ED10132964240F2A08013F03D
:10065000300F1CD10132964240F29C8013F0C00F43
:100660001AD10132964240F298800130B84218D235
:1006700011F8013F13F0030FDFD013F00C0F4FF010
:100680000002E0D013F0300F4FF00002E2D013F080
:10069000C00F4FF00002E4D00130B8424FF000022A
:1006A000E6D3BEF1000F14D04FF000084046BDE87D
:1006B000F883D4E9A5239A42B3D332F01FFAD4F8D1
:1006C0009C02D4F8FC71B84238BF4FF0010EAED393
:1006D000EAE732F013FAD4F89C02D4F8FC718742AE
:1006E0004FF0010EA3D8DFE78000811A012A01F143
:1006F000010703D1431C9B08C4F89C324FEA970EB4
:1007000007F003031CF80E904FEA4308012303FA95
:1007100008F3023143EA090388420CF80E3013D380
:100720004FF002084FEA910CD4F8F8E101F003030E
:100730001EF80C905B0008FA03F3013143EA090349
:1007400088420EF80C30EDD2D4F80492D4F89432EA
:1007500009EB07181E44120140460021C4F89462B8
:100760001EF058FFEB074FEA07169FD50023D4F879
:10077000001249F80630FA080123885C07F00707E1
:1007800003FA07F707438F544046BDE8F88380001B
:100790000130AAE780000230A7E780000330A4E719
:1007A000AC2A0020034B1A8912B908B1FFF7F8BC34
:1007B000704700BFAC2A002010F00F021CD117496F
:1007C000D1F80432834218D810B4D1F808428442D8
:1007D0000ED9C31AD1F8F8419909C3F30110615C2D
:1007E0004000014101F0030101294FEA131306D033
:1007F00010465DF8044B70470022104670470132E6
:100800009918880801F00301205C490040FA01F1C1
:1008100001F003010229F2D01201E9E7AC2A00201D
:100820002DE9F84F8E460746002800F0A7800029E2
:1008300072D0574E3489002C72D1D6F80412D6F8F3
:10084000FC31411A080900F1010C0EF10F05BCEB57
:10085000830F4FEA830A4FEA151580F09580D6F88A
:10086000F8914FF001084FEA9C0B0CF0030319F8C4
:100870000BB05B004BFA03F303F00303022B53D0DE
:1008800023B9013404EB0803AB424FD345453FD0B5
:100890001FD34444AC424ED2002A41D0D6F8003295
:1008A000C90900F00700595C014101F001017046DF
:1008B000FFF7A4FE044698B34FEA081239461EF02B
:1008C00063FE33892BBB3846FFF76AFC2046BDE840
:1008D000F88F05442C4640444FF003094FEA940E2C
:1008E000D6F8F81104F0030311F80EC05B0009FA02
:1008F00003F301342CEA0303844201F80E30EDD1F6
:10090000D6F89C32AA08B3EB950F88BFC6F89C2294
:100910003C462046BDE8F88F1D4B1C89002CD3D0E7
:1009200000242046BDE8F88F08F101080CF1010C05
:10093000E24598D1AAE700EB08022844904211D979
:100940004FF0020E9408D6F8F81102F0030311F8E4
:1009500004C05B000EFA03F3013243EA0C03904239
:100960000B55EFD1A5EB0802120107EB081000218F
:100970003C461EF04FFE2046BDE8F88F014670460B
:10098000BDE8F84FFFF73ABE4FF001087EE700BF21
:10099000AC2A002010B58AB00B4C03A8FFF7B4FDB9
:1009A000059B00930949DDE903232046E2F7FCFF9C
:1009B000069A099B019200930549DDE90723204629
:1009C000E2F7F2FF0AB010BD2CC60508406F05081B
:1009D000646F05082DE9F047DFF86CA14B49DAF8A0
:1009E00004224B48E2F7E0FFDAF8FC11890078D0E6
:1009F000DFF85891DFF85881454F00250EE0012EB1
:100A00003ED02E2243493846E2F7CEFFDAF8FC31D9
:100A10000135B5EB830F4FEA830162D215F03F0633
:100A200010D005F003067600DAF8F821AB08D35CA5
:100A300043FA06F606F00306022E1FD0032EDED17F
:100A40006D22DFE7DAF8F8012C46A20804F0030370
:100A5000825C5B0042FA03F39B0702D101348C42B3
:100A6000F3D3621B7F2A30D805F00306760009EA2B
:100A7000051241463846E2F797FFD5E73D22C1E728
:100A8000DAF80412244B2A018A589A422FD0234BB9
:100A90009A422ED0224B9A422FD0224B9A422AD0F1
:100AA000214B9A4227D0214B9A4228D0204B9A4280
:100AB00025D0204B9A4226D01F4B9A4221D01F4B63
:100AC0009A420CBF4D2268229CE71D499209384684
:100AD000E2F76AFFDAF8FC3124F03F05B5EB830F4B
:100AE000C5D3BDE8F04717490948E2F7D3BB542204
:100AF00088E74C2286E7532284E7442282E741229A
:100B000080E742227EE746227CE700BFAC6F050803
:100B10002CC60508F06F0508F0FB050884ED0508F4
:100B2000A0DF050870F905080CF70508A4DB050827
:100B30002CDB0508C8E7050858E8050830EF05086C
:100B4000CC6F0508C86F0508AC2A0020F0FF0F0025
:100B5000E86F0508054B9B695A68824204D8801AE1
:100B6000043053F8200070471B68F5E7AC2A0020DA
:100B7000014441F20553884204D398B2012838BF9A
:100B80000120704710F8012B03EB43135340F2E7A9
:100B9000034B044A9A610022C3F8DC21704700BF6E
:100BA000AC2A0020207506082DE9F84F80460D4636
:100BB000FFF7DEFF134B9C6907460CB920461EE089
:100BC000E36804F1100B0BEB83095E464E45B24619
:100BD00001D32468F1E756F8040B0388BB42F5D132
:100BE0008378AB42F2D12A46414603301EF028FDFD
:100BF0000028EBD16068AAEB0B0A00EBAA00BDE865
:100C0000F88F00BFAC2A00202DE9F04780460E4641
:100C1000FFF7CAFF0246002877D1FF2E03D94049CB
:100C200040480AF0EFFD404CD4F8DC01351D90B18E
:100C3000D4E978132B448B422BD92944FFF752FA7D
:100C40000746E8B90246D4F8E411D4F8DC01FFF70E
:100C500049FAC4F8DC71802D2F4638BF802738460A
:100C6000FFF725FAC4F8DC01002852D12846FFF727
:100C70001EFAC4F8DC0100284AD128460BF036FBE6
:100C8000D4F8E0312B44C4F8E031D4F8DC31002B47
:100C9000E1D0D4F8E491D4F8DCA131464D4440468B
:100CA000C4F8E451FFF764FF0AEB09070AF80900EA
:100CB000000A7870BE7032464146F81C1EF064FC93
:100CC000B9190026CE70A369D3E90253AB4212D3FF
:100CD0006D000A2D38BF0A25281D8000FFF7E7F9AF
:100CE0000028CAD0A26902605368D268C660134463
:100CF000C0E90135A061A369D9685A68481C04316C
:100D0000D860013A43F8217002441046BDE8F087EC
:100D10002F460023C4F8E071C4F8E431B9E700BFFE
:100D2000F36F050824E50508AC2A002010B5044639
:100D30001EF0A8FC01462046BDE81040FFF764BF46
:100D400008B5FFF707FF008808BD08B5FFF702FFE9
:100D5000807808BD08B5FFF7FDFE033008BD08B573
:100D6000FFF7F8FE83780B60033008BD2DE9F843E8
:100D70001D46002303600B6013602B60174BDFF8E8
:100D800060909C690746884616460CB14C4505D1D3
:100D90002B68326813442B60BDE8F8833B6801334D
:100DA0003B60E268D8F800301344C8F80030E268CD
:100DB00004F1100303EB8202934207D32046FFF7AE
:100DC000FBFC2B68246818442860DEE753F8041BFA
:100DD00088783168043101443160EDE7AC2A0020A5
:100DE000207506082DE9F8430E4B0F4F9C69DFF87C
:100DF0003C80DFF83C900CB1BC4201D1BDE8F883E7
:100E0000E36804F1100505EB8306B54201D32468BD
:100E1000F1E755F8042B414603324846E2F7C4FD9A
:100E2000F3E700BFAC2A002020750608F86F05081C
:100E30002CC6050830B50023202411F8012F0AB96B
:100E4000027030BD120600F101051FD50BB1047010
:100E500028460B78124A03F07F036BB9013A12F867
:100E6000013F13F0800F054600F101000BD003F0A5
:100E70007F032B700123E0E712F9015B002DFBDA01
:100E8000013BDBB2E9E700F8013CE8E7012B04BFD6
:100E9000047028460B7800F8013B0223CDE700BF21
:100EA000FF6F050838B54468036821449942054638
:100EB00011D9037BDB0703D5074800210AF0A2FC08
:100EC00001F1100424F00704083480682146FFF77C
:100ED000FEF82C60A86038BD24E5050870B504460E
:100EE0000E4611461546FFF7DDFFD4E901302A46CC
:100EF000314618441EF076FB62682A44626070BD79
:100F000070B54668B142044628BF31460D460121FE
:100F1000FFF7C8FFA368681C5919721B18441EF01C
:100F200061FB6368A06801336360284470BD38B515
:100F30000129044638BF012100250846216065606B
:100F4000FFF7AAF8237BA06065F30003237338BD85
:100F500038B505460C460131FFF7E9FF6C6038BD36
:100F60000023C0E90132037B016043F001030373F6
:100F70007047000038B514460546FFF7D8FF024B0E
:100F80002560636038BD00BFDD0E0208037BDB0710
:100F900010B5044602D48068FFF7A6F80023A360CA
:100FA00010BD13B501901020FFF776F801990446A3
:100FB000FFF7BDFF204602B010BD10B5044650B18A
:100FC000037BDB0702D48068FFF78EF82046BDE87C
:100FD0001040FFF789B810BD38B5037BDB07044626
:100FE0000D4603D5074800210AF00CFC0168806813
:100FF0002944FFF76CF82368A0601D44256018445D
:1010000038BD00BF24E5050838B504460D46FFF796
:1010100049FFD4E901301D446560184438BDD0E96A
:1010200000239A4210B5044602D10121FFF7D4FFF4
:10103000D4E901320021D154A06810BD10B50C468E
:101040000121FFF7E1FF047010BD7F29F8B50C46C0
:10105000CEB204D80121FFF7D7FF0670F8BD06F025
:101060003F06B1F5006FC1F3871546F0800607D241
:101070000221FFF7C9FF65F03F0505704670EDE7F7
:1010800005F03F05B1F5803FC1F3073745F0800516
:1010900008D20321FFF7B8FF67F01F0707704570FC
:1010A0008670DBE70421FFF7AFFFA40C07F03F07D2
:1010B00064F00F0467F07F07047047708570C67096
:1010C000CCE713B50446084601911EF0DBFA0199FE
:1010D0000246204602B0BDE81040FFF7FFBE10B543
:1010E0001446FFF70DFF047010BD10B51446FFF74E
:1010F00007FF047010BD43688B422CBF591A0021B2
:101100004160704738B50446154662688A42084611
:1011100003D929448A4201D8606038BDA368521AB5
:10112000184419441EF05EFA6268521B6260F4E7CC
:1011300090F9001003780029024601DB1846704739
:1011400003F07F004023184206D112F8013F03F05C
:10115000C001802904D0704720EA03005B08F2E751
:1011600003F03F0343EA8010EFE7431C18460133C6
:10117000027802F0C002802AF8D0704703460020AF
:10118000994200D8704711F8012D02F0C002802A60
:1011900018BF0130F4E701440346002099421A4683
:1011A00000D87047127802F0C002802A03F10103D0
:1011B00018BF0130F2E700007F289DBF024B185C8A
:1011C000C0F340000020704756C605087F289DBF29
:1011D000024B185CC0F3C0000020704756C60508DB
:1011E0007F289DBF024B185CC0F380000020704731
:1011F00056C605087F289DBF024B185CC0F38010BF
:101200000020704756C605087F2809D8064B1B5C8E
:1012100013F00C0F06D1A0F15F03584258417047FC
:10122000002070470120704756C605087F289DBFE3
:10123000024B185CC0F300100020704756C605082A
:101240007F289DBF024B185CC0F340100020704700
:1012500056C6050808B50246FFF7E8FF00B1203280
:10126000104608BD08B50246FFF7EAFF00B1203A74
:10127000104608BD3038092884BF20F02000073808
:10128000704710B501440246E5240020914203D87E
:10129000B0FA80F0400917E012F8013B30B103F0DA
:1012A000C003802B11D1431ED8B2EFE7BF2B09D961
:1012B000F72B09D8DB0803F0060344FA03F303F025
:1012C0000300E3E71B06E1D510BD0020FCE702396F
:1012D00081420B4603D20233181A401070471A8815
:1012E0000239002AF4D0F6E7B2EB131F70B54FEACB
:1012F000131415D9121B03F00F0301EB440115461B
:101300000E46012D31F8024B18BF3468DC40A4B200
:10131000013D20F8024BF3D104B9013A104670BDEB
:101320000022FBE7F0B5059F0024D21B2646A7420A
:1013300010D100EB470C01EB47010024A24214D16D
:101340000CEB42031EB101212CF812100233181AC3
:101350004010F0BD31F8145033F814C065443544E2
:1013600020F814502E0C0134E1E731F814503544C4
:101370002CF814502E0C0134E0E7F0B4049F002543
:10138000D21B2C46AF420BD100EB470601EB4705C1
:1013900000239A420FD106EB4201F0BCFFF797BF42
:1013A00031F81560344433F81560A41B20F815405B
:1013B00024140135E6E735F813100C4426F81340E1
:1013C00024140133E5E72DE9F043079CDDF828E01C
:1013D000DDE908760239154684464FF6FF78A4EB1E
:1013E000020955B900EB42011FB1012320F8123068
:1013F0000231BDE8F043FFF76ABF31F8024F013D0B
:101400004444264405EB0904AC4296BF33F8024B32
:101410004FF6FF744444744486EA040E17FA8EF7BC
:101420002CF8027B4FEA144E360C3F0CD9E738B546
:1014300002290446806838BF02210D4618B123688E
:10144000B1EB930F07D96900FEF741FE2368A06056
:1014500065F39F03236038BD38B504460C20FEF7C2
:101460001BFE23682278054602F00102C3F39D00AB
:1014700023F0030313432B6063686B604000FEF7A7
:101480000BFEA8602268A168C2F39D0252001EF004
:101490007BF8284638BD10B500EB410002EB410255
:1014A00009B9084610BD30F8023D32F8024D1B1B49
:1014B000002B02DB04D10139F2E74FF0FF30F1E7F6
:1014C0000120EFE710B5044638B18068FEF70CFE46
:1014D0002046BDE81040FEF707BE10BD38B50546F2
:1014E0000C460221FFF7A3FF002C2B78B4BF01228A
:1014F000002262F300032B70AB68B4BF6142214647
:10150000023B012223F8021F090C104602F10102DE
:10151000F8D1686038BD0023C0E9003383607047AC
:1015200028B103789B0702D48068FEF7DDBD7047C1
:1015300038B505460C464968FFF779FF22782B78C5
:10154000A86862F300032B7063686B606268A1682F
:101550005200BDE838401EF017B809B94160704725
:10156000FFF7BCBF08B5FFF7D6FFBDE80840FFF79F
:10157000F4BF920042F0020210B402600022C0E9FF
:1015800001215DF8044B1946FFF7E7BFF8B59DF858
:1015900018700421064614461D46FFF748FF87B120
:1015A000002C75F100030CDA624265EB45033178DB
:1015B00067F3000131700021716052EA030104D128
:1015C000F8BD22462B460027F1E7D6E901104C1C56
:1015D000746020F81120110C41EA0341180C0A46EE
:1015E0000346EAE72DE9F3418DED010A019C0378FA
:1015F000E20F62F300030370C4F30F4313F4FF43DD
:10160000074604D100237B6002B0BDE8F081B3F54A
:10161000FF4FF7D0C4F3C753A3F17F05002DF1DBD3
:1016200005D1012102B0BDE8F041FFF757BFB3F18A
:101630006F0848BFA3F16008C4F31604162D4FEAE3
:10164000281844F4000421DCC5F11705EC400025FE
:101650002E4641463846FFF7EAFEC7F8048026B119
:10166000B868720000211DF0D5FF45B1BB6804FACF
:1016700005F223F81620C5F11005EC400136B045FF
:10168000C2D0BB6823F81640240CF7E7B3F19606E6
:1016900005F1090548BFA3F1870605F00F053611CE
:1016A000D7E72DE9F84304468F18C2F35B020D46D5
:1016B000511C9846089EFFF7BAFE237868F3000392
:1016C00023700023636029461FFA86FCB94208464E
:1016D00002D3401BBDE8F8830278A2F13003092B46
:1016E00001F1010105D9A2F14103192B14D8A2F18E
:1016F0003703B342EDD2D4E901E0F0468146B8F1B8
:10170000000F10D100EB4E0213B120F81E30023250
:10171000121A52106260D9E7A2F16103192BD8D8CE
:10172000A2F15703E5E7B9F8002002FB0C3329F8D2
:10173000023B08F1FF381B0CE1E7F8B504461546FB
:101740001E46C1B1531E1E444FF0FF37E9000F3152
:1017500009092046FFF76BFE237800216FF3000391
:10176000237061604DB9D4E9011000EB4101FFF72E
:10177000AEFD6060F8BD0127E8E700230F2908DC13
:1017800032788A401343013D9BB201F108013E4487
:10179000F4D16268501C6060A068103920F81230E3
:1017A000E0E770B5456804460DB9486898B10B7814
:1017B000267803F0010306F00100181A0BD14B68DC
:1017C0009D4209D30BD88A68A0682946FFF763FEBB
:1017D000F30748BF404270BD4FF0FF30F8E70120EB
:1017E000F6E7884210B5044601D0FFF7A1FE237842
:1017F0006FF30003237010BD884210B5044601D07A
:10180000FFF796FE2378C3F30002C2F1010262F3F0
:101810000003237010BD88421FB5044601D0FFF7B6
:1018200087FE626862B901212046FFF700FEA268C8
:10183000012313806360237843F00103237010E0D9
:101840002378D9070FD5A1686FF300032370012314
:10185000ADF80E30009308460DF10E03FFF78DFD35
:10186000606004B010BD511C2046FFF7E0FDD4E9D4
:1018700001210123ADF80E30009308460DF10E034F
:10188000FFF750FD6060D6E72DE9F8434B68054649
:101890000E46144603B12AB931462846BDE8F8433E
:1018A000FFF746BE02F10F014FEA111803EB1111C9
:1018B000FFF7BDFDD6E9010208EB0007AB6807F1B1
:1018C000004114F00F0401F1FF3103EB410308BFA5
:1018D000102402EB400E014699460022C4F1100488
:1018E00001BB6FF0010C0CFB00FC22FA04F403EBCB
:1018F0000C0023F80C40C8F1010300EB430308F18E
:10190000FF32184652001DF085FE831E17B133F8D2
:10191000172092B16F6032782B7862F300032B703E
:10192000BDE8F8833EF802CD4CEA020222FA04FC3C
:1019300029F802C912040139D2E7013FE6E7F0B500
:101940000E46496885B00546144601B12AB93146AC
:101950002846FFF7EDFD05B0F0BDFFF768FDD6E9BD
:1019600001212346A868FFF7BFFC686032782B7816
:1019700062F300032B70DB07EDD500237168ADF82F
:101980000E302209994201D093420FD19142E2D9FF
:10199000B36804F00F0433F81220012303FA04F4AF
:1019A000013C224213D0ADF80E3008E0B76837F89A
:1019B000137057B101239142ADF80E30E8D8A968F1
:1019C000012348B90B806B60C5E70133DAE7BDF846
:1019D0000E30002BBFD0F2E7009302460DF10E034C
:1019E0000846FFF79FFC6860B5E773B553680C467F
:1019F000496899420646154606D308D89268A068F9
:101A0000FFF749FD002802DA23462C461D462378BD
:101A10002A7861685340DB0713D401313046FFF761
:101A200006FD6B680093D4E90121AB68B068FFF74D
:101A300079FC70602278337862F30003337002B06F
:101A400070BD3046FFF7F3FC6B680093D4E90121C9
:101A5000AB68B068FFF791FCEBE7F7B553680C464D
:101A6000496899420646154606D328D89268A06868
:101A7000FFF711FD002822DA234601272C461D46D8
:101A800023782A7861685340DB071AD50131304644
:101A9000FFF7CDFC6B680093D4E90121AB68B06817
:101AA000FFF740FC7060237803F001030FB183F06F
:101AB0000103327863F30002327003B0F0BD0027F7
:101AC000DEE73046FFF7B3FC6B680093D4E90121F1
:101AD000AB68B068FFF751FCE4E72DE9F04F15461D
:101AE0004A686B689A420E463EBF2E460B461D461C
:101AF00033787168DB0785B0044621D42B7813F066
:101B000001071DD1FFF793FCD5E9011CA068B66859
:101B10003B4699420BD100EB4101FFF7D8FB2378FC
:101B200060606FF30003237005B0BDE8F08F36F8F6
:101B300013203CF813502A4020F813200133E8E723
:101B400001312046FFF773FC96F800A02B78D6F8F9
:101B500004C0A0688AEA0307FF4307F0010E47F3B9
:101B60000007BFB2D5E901120AF001084AF3000AE2
:101B700002971FFA8AF703F00109019743F3000364
:101B8000B7689BB2A1EB0C01A7F1020A009367466C
:101B900083460391BFB900EB4C01BEF1000F03D0A7
:101BA000012320F81C300231FFF791FB606033788D
:101BB0002A78C3F30003C2F300021340227863F3D0
:101BC00000022270B0E73AF8021F019B5940039BC4
:101BD000013F8844D919B9429BBF32F8021B009BD0
:101BE000009959408944029B08EA090159401EFAAC
:101BF00081F12BF8021B4FEA19494FEA18484FEAC6
:101C0000114EC7E72DE9F84F16464A6873689A42A5
:101C10000D463EBF35460B461E462B786968DB07EE
:101C2000044631D4327812F001072DD1FFF7FFFBC3
:101C3000D6E9013EA9686D68D4F808C0ED1A3A46A5
:101C4000934212D101EB430100220CEB4303954276
:101C500014D103EB4503A3EB0C035B106360237803
:101C60006FF300032370BDE8F88F31F812003EF8DF
:101C7000126030432CF812000132E1E731F8120013
:101C800023F812000132E2E701312046FFF7CFFBD3
:101C90002F7833786968A068AD68D6E901E203F06F
:101CA000010947F3000643F3000307F00108A5F11B
:101CB000020CB6B29BB20F4682460125AEEB010E76
:101CC00047B900EB4101FFF702FB2378606043F066
:101CD0000103C7E73CF802BF013F8BEA060BD8447B
:101CE0000EEB070BBB4596BF32F802BB9B468BEA57
:101CF000030BD94448EA090B6FEA0B0B15FA8BF575
:101D00002AF8025B4FEA19494FEA18482D0CD7E729
:101D1000F0B516464A6873689A4238BF0B460C46BF
:101D20003CBF34461E462778337861685F4017F021
:101D3000010785B005463AD1FFF779FB237813F008
:101D4000010328D1D6E9012C6168A868A768891A1F
:101D50009A4211D107EB4207002300EB420299425D
:101D600013D102EB4101FFF7B2FA2B7868606FF3F1
:101D700000032B7005B0F0BD37F813403CF813603A
:101D8000744020F813400133E2E737F8134022F89B
:101D900013400133E3E7CDE90277019773680093BD
:101DA000D4E90121B368A868FFF70DFBDDE7013135
:101DB000FFF73DFB3378A868DB4303F0010303938F
:101DC0002378DB4303F0010302930123019373683B
:101DD0000093B368D4E90121FFF7F5FA2B78686026
:101DE00043F00103C5E72DE9F04F4B6885B0064687
:101DF0000D4614460BB1536823B90023736005B038
:101E0000BDE8F08F81422ED1FFF726FBB442054694
:101E1000074600D104466368696830461944FFF7F5
:101E200006FB3268B068C2F39D02520000211DF02B
:101E3000F1FBAB68D6F808E0D5F804A00193A368DD
:101E400002930022636803930EEB4A08F44611469E
:101E5000039B934231D0DDF804B0CDF800A0ACF183
:101E60000200002318E0824204D1FFF7F5FA04468D
:101E70000746D0E70027CEE730F8029F99443BF8A9
:101E8000023B1946029B33F8123003FB0193009981
:101E9000038001391B0C009100990029ECD14146C7
:101EA000881C13B1A8F800300146A1EB0E014910BF
:101EB0000CF1020C01328046CAE7716022782B785F
:101EC00053403278384663F30002327005B0BDE803
:101ED000F04FFFF7F7BA4B6870B50646144613B1DA
:101EE0001378DA0702D50023736070BD636823B9E5
:101EF000BDE870400121FFF7F1BA0846FFF7ACFAE0
:101F000005462046FFF7A8FA012104463046FFF7B0
:101F1000E5FA636883B1A3681B88DB0704D52A460A
:101F200031463046FFF75FFFD4E90121012308461F
:101F3000FFF7DAF9606038B92846FFF7C3FA2046A0
:101F4000BDE87040FFF7BEBA2A4629462846FFF78B
:101F50004AFFDEE72DE9F04F0C4651688FB0174677
:101F6000013105460293FFF762FA7A68A8680132E8
:101F7000520000211DF04EFB00236B607968204663
:101F80000131FFF754FA39462046FFF7D1FA029B98
:101F9000D4F804905B6801934B4531D8029BA66846
:101FA000D3F80880AB6803932CD3424649463046A9
:101FB000FFF771FA10BB039A6060012313806B6016
:101FC000029A3B7812785340DB0714D52B7843F004
:101FD00001032B70636873B14FF0FF310BA8FFF75B
:101FE000C1FA0BAA29462846FFF7FFFC029A2146B0
:101FF0002046FFF7FAFC0FB0BDE8F08F013001D1A9
:102000000023DCE7019B03F10042013A53000493F3
:1020100038F812304FF0000E18040EF1010156D5B9
:102020004FEA490009F1010300F1020C002126F8F2
:102030001910059363601FFA8EFA06EB0C030693E2
:10204000B446CAF1100B069B9C4544D3019B38F85B
:102050001220012B02FA0AFB09D9049B08EB0302A8
:10206000CAF1100132F8022CCA404BEA020B059A61
:10207000019BD31A6B60039A03F10043013B02EB0F
:1020800043030593049B02330993A8F102033044F0
:10209000089363680493049A019B934227D302F147
:1020A000004B0BF1FF3B06EB4B0B0021CAF110007C
:1020B0005E4570D96FF000416B682BB103985A18D8
:1020C00030F81220002A70D06FF0004172E05B00FF
:1020D0009BB28E46A0E7BCF800E00EFA0AF949EA86
:1020E00001012CF8021B2EFA0BF189B2ABE7028832
:1020F00030F8023C43EA0243099AB3FBFBF3821A2D
:1021000006920021089ADDF818C0079288466045BB
